:020000040800F2
:10000000C05300203D02000835260008692300087F
:1000100031260008C5080008AD2D000800000000CA
:10002000000000000000000000000000E1260008C1
:10003000710A000800000000712600081927000856
:10004000570200085702000857020008570200082C
:10005000570200085702000857020008570200081C
:10006000570200085702000857020008570200080C
:1000700057020008570200085702000857020008FC
:1000800065090008750900085702000857020008B2
:1000900057020008570200085702000857020008DC
:1000A00057020008570200085702000857020008CC
:1000B00057020008570200085702000857020008BC
:1000C00057020008570200085702000857020008AC
:1000D000570200088D2D00089D2D000857020008CA
:1000E000570200085702000857020008570200088C
:1000F000570200085702000857020008570200087C
:10010000570200085702000857020008570200086B
:100110005702000857020008E927000857020008A4
:1001200085090008570200089509000857020008D1
:10013000570200085702000857020008570200083B
:10014000570200085702000857020008570200082B
:100150005702000857020008A509000857020008C6
:10016000570200085702000857020008570200080B
:10017000570200085702000857020008000000005C
:10018000570200085702000800F002F800F047F894
:100190000AA090E8000C82448344AAF10107DA45E2
:1001A00001D100F03CF8AFF2090EBAE80F0013F0ED
:1001B000010F18BFFB1A43F001031847307100000C
:1001C00050710000103A24BF78C878C1FAD852079D
:1001D00024BF30C830C144BF04680C6070470000C1
:1001E0000023002400250026103A28BF78C1FBD840
:1001F000520728BF30C148BF0B607047642900F028
:10020000DD80752900F0DA80782900F01381002064
:1002100070471FB506F027FF1FBD10B510BD00F0D9
:100220004BFA1146FFF7F5FF02F0C4FF00F069FA40
:1002300003B4FFF7F2FF03BC00F06CFA09488047F3
:1002400009480047FEE7FEE7FEE7FEE7FEE7FEE7B8
:10025000FEE7FEE7FEE7FEE704480549054A064BD0
:1002600070470000D527000889010008C04D002014
:10027000C0530020C04F0020C04F002053EA020CA2
:1002800000F069802DE9F04B4FF00006002B1FBFF6
:10029000B3FA83F503FA05F424FA05F65E4012BFBB
:1002A0001643B2FA82F502FA05F4C5F120051EBF25
:1002B00022FA05FC44EA0C04203556EA044C4FEAC5
:1002C000144418BF641C4FF000084FF0000990421E
:1002D00071EB030C39D3002919BFB1FA81F701FA88
:1002E00007F6B0FA80F700FA07F6C7F120071EBF3D
:1002F00020FA07FC46EA0C062037B6FBF4FCA7EB15
:100300000507103F07F01F0BCBF120062CFA06F66D
:100310000CFA0BFB44BFB3460026202FA4BF5E4659
:100320004FF0000B5BEA060C08BF4FF0010B19EB16
:100330000B0948EB0608ABFB027C06FB02CC0BFB6F
:1003400003CCC01B71EB0C01C1E70B4602464146D2
:100350004846BDE8F08B13B5084318BF4FF0FF3097
:100360000146AFF30080BDE81C40704770B50446FD
:1003700085690068C10601D5302600E02026C00747
:1003800007D070BDD4E9012130469047206A401C57
:1003900020626D1EF6D570BD70B504468569007883
:1003A000C00707D170BDD4E9012120209047206A01
:1003B000401C20626D1EF6D570BD00002DE9F04195
:1003C0000646002410687529314616A510D0AFF3F3
:1003D0000080002802DA404213A507E031688A074E
:1003E00001D512A502E0490704D511A5012401E0B9
:1003F000AFF3008000210A2206F1240709E0B0FBD8
:10040000F2FCB0FBF2F302FB1C00303078541846CB
:10041000491C0028F3D123462A463046BDE8F04166
:1004200000F0E8B8000000002D0000002B000000E4
:100430002000000070B504460D4621461068AFF359
:1004400000802188090502D50F4A7A4402E00E4A4D
:100450007A440E32002104F1240305E000F00F0677
:100460000009965D5E54491C0028F7D120780023CE
:10047000000704D5702D02D009B1022311322046A5
:10048000BDE8704000F0B6B82C6D0000032A40F2C1
:10049000308010F0030C00F0158011F8013BBCF126
:1004A000020F624498BF11F801CB00F8013B38BF3E
:1004B00011F8013BA2F1040298BF00F801CB38BF4C
:1004C00000F8013B11F0030300F02580083AC0F06A
:1004D000088051F8043B083A51F804CBA0E8081012
:1004E000F5E7121D5CBF51F8043B40F8043BAFF345
:1004F0000080D20724BF11F8013B11F801CB48BF9F
:1005000011F8012B24BF00F8013B00F801CB48BFD4
:1005100000F8012B704710B5203AC0F00B80B1E80D
:100520001850A0E81850B1E81850A0E81850203A28
:10053000BFF4F5AF5FEA027C24BFB1E81850A0E831
:10054000185044BF18C918C0BDE810405FEA827C4B
:1005500024BF51F8043B40F8043B08BF7047D20762
:1005600028BF31F8023B48BF11F8012B28BF20F803
:10057000023B48BF00F8012B704702F0FF0343EA3B
:10058000032242EA024200F002B84FF0000200B536
:10059000134694469646203922BFA0E80C50A0E8A6
:1005A0000C50B1F12001BFF4F7AF090728BFA0E854
:1005B0000C5048BF0CC05DF804EB890028BF40F820
:1005C000042B08BF704748BF20F8022B11F0804F62
:1005D00018BF00F8012B704770477047704710B57F
:1005E00000F062F8006810BD10B5044600F05CF839
:1005F000046010BD2DE9F0470D4699469246044629
:1006000000F124080168880604D5E06921F0100192
:10061000216000E00120A84201DD471B00E0002727
:10062000A1697A1902EB0900081AA0612078C006B6
:1006300002D42046FFF79AFE002608E0D4E9012103
:100640001AF806009047206A401C761C20624E452E
:10065000F4DB2078C0060AD52046FFF787FE06E0C7
:10066000D4E9012130209047206A401C2062381EC6
:10067000A7F10107F4DC07E0D4E9012118F805002F
:100680009047206A401C2062281EA5F10105F3DC7A
:100690002046FFF781FE2078000602D50220BDE843
:1006A000F0870120FBE70000004870472800002089
:1006B00000487047280000207546FFF7F9FFAE4656
:1006C00005006946534620F00700854618B020B55E
:1006D000FFF7C2FDBDE820404FF000064FF00007D5
:1006E0004FF000084FF0000BAC46ACE8C009ACE896
:1006F000C009ACE8C009ACE8C00921F007018D468B
:10070000704710B50446AFF300802046BDE81040A6
:10071000FFF78EBD01491820ABBEFEE726000200A0
:100720007047000080B50146806B036C026C13F0CB
:10073000500F06D0D2060FD4806BC26C084690478B
:1007400080BD42F40071016401688A6812F0405F64
:1007500005D000F017FA80BD00F018FA80BD027EC7
:10076000002AF6D1CA6A12F4700F02D08A685205C4
:10077000EFD44A6822F020024A60016C21F48071B3
:100780000164016CC904E4D4016C41F0010101640D
:1007900000F0F8F980BD000080B5806B4021016455
:1007A000416C41F00401416400F0F0F980BD0000AB
:1007B00080B5806B00F0E8F980BD000010B542F212
:1007C0000432C4F20102116821F440311160D2F800
:1007D00000C090E80A4043EA0C03C46813604A680A
:1007E00022F480724A6002694B6843EA02224A603E
:1007F0004A6822F040724A604A6842EA0E024A6041
:100800008A6822F400628A608A6822438A60826A67
:100810008B68012423F070638B608B68C0F60074D2
:10082000A24202D123F0405208E01A438A608A684B
:1008300022F040528A60C26A8B681A438A608A68D2
:1008400022F002028A608A68037E90F8204042EA21
:1008500043028A604A6884B142F400624A604A688E
:100860004EF2000322F460424A60426ACFF6FF7300
:100870004C6803EB4232224301E022F400624A60FA
:10088000CA6A40F2000C22F47002CA62C36942696B
:10089000CFF6F07CCC6A0CEB03532343CB628B681E
:1008A00023F400738B6090F830008B6843EA40209B
:1008B0008860886820F480608860886840EA8220C8
:1008C000886010BDFEE7000070B502780A704278BB
:1008D000131F03328B77CA7750FA82F313F8013C67
:1008E000D2B2FF2B0BD000BF402A39D80132CA77D1
:1008F00050FA82F313F8013CFF2BF5D1D2B2CB7F33
:10090000825C082B4A7023D38A1D00254FF0FE0C11
:100910004FF0FF0E0023002409E000BFD554CD7F27
:100920000133073D53FA84F6AE42E5B210DA0544CE
:10093000EE18B579FE2DF1D1F579FC2D04D0FD2D01
:10094000EDD102F803E001E002F803C00134E6E76C
:1009500082884A8082780A71C0784871012070BD0F
:10096000002070BD80B540F28420C2F2000000F08B
:1009700095FA80BD80B540F2E420C2F2000000F09C
:100980008DFA80BD80B540F26410C2F2000000F024
:1009900085FA80BD80B540F2C410C2F2000000F0BC
:1009A0007DFA80BD80B540F22420C2F2000000F044
:1009B00075FA80BDD0F800C06FF00F024AF6AB2385
:1009C00052FA8CF2CAF6AA230146A2FB03300009B0
:1009D00005A31B5C40F2FF302CEA00005F2A88BFB1
:1009E0000430C1E916037047000610160006101601
:1009F0008269816AB2F5005F06D06AB9022912D015
:100A0000012914D0D1B90EE0032917D8DFE801F08D
:100A1000020B020F0120704703293CBF01207047E1
:100A20001CBF00207047C06AC0F300607047C06AF6
:100A3000A0F1C070B0FA80F0400970470020704704
:100A400080B5D0F800C0D0F808E0DCF80000BEF1B6
:100A5000400F20F48020CCF800000846CCF8043089
:100A600004BF10460A46CCF80800CCF80C2080BD24
:100A70007047000072B600BFFEE7000070B581B09D
:100A80000022009290F83C20012A01D1022156E078
:100A90000E6801221FFA86FC80F83C204FEA4C02C7
:100AA00012FA86F302680A2E32BF10321E3B0C3255
:100AB0004FF0070E15680EFA03F4A54315608D6814
:100AC000146805FA03F3234313604968062906D81E
:100AD000026801EB8101053902F134030AE00C29B7
:100AE00001EB8101026887BF413902F12C032339F0
:100AF00002F130031F221C688A4024EA02021A60B5
:100B00001A680CFA01F1114342F2043E1960C4F272
:100B1000010E0168122EAEF5417208BF914205D157
:100B2000DEF8003043F48003CEF8003026F00103F5
:100B3000102B08BF914205D0002180F83C100846D8
:100B400001B070BDDEF80010102E41F40001CEF8A7
:100B50000010F1D140F20001C2F2000109684DF627
:100B60008362C4F21B32A1FB0212910C01EB8101E2
:100B7000490000BF009100990029DDD0009901399A
:100B8000F8E7000070470000704700007047000061
:100B9000B0B510B30446006C30B9204600F020F820
:100BA0000020606484F83C00206C0125C0060FD44E
:100BB000206C41F202118843023020642046FFF786
:100BC000FDFD00206064206C65F3010000252064B9
:100BD000002084F83C002846B0BD0120B0BD0000D4
:100BE00070B586B0002604460596CDE9036642F24C
:100BF00000002168C4F2010081420296019601D0F2
:100C000006B070BD43F630010096C4F202014A6995
:100C100000F5604042F480724A614A6902F48072D1
:100C20000092009A00960A6842F001020A60096880
:100C300001F00101009100990F2101910321CDE9FB
:100C4000021601A900F08AFA40F2641546F210403B
:100C5000C2F20005C4F202004FF48061C5E900064B
:100C600005F110004FF400624FF400534FF4807C04
:100C7000C5E9026680E80E102846C5E9086600F05E
:100C8000D3F9002818BFFFF7F5FEA563AC6306B0E3
:100C900070BD000070B582B004460020019094F849
:100CA0003C00012802D1022002B070BD13460A4662
:100CB0000120216884F83C008868C00718D1886842
:100CC0004DF6836540F00100886040F20000C2F2FA
:100CD00000000068C4F21B35A0FB0505A80C00EB62
:100CE000400000BF0190019810B101980138F9E768
:100CF0008868C00503D5886820F4807088608D6896
:100D0000206CED0707D140F010002064606C40F0CB
:100D1000010060646CE040F20175A84300F580704A
:100D200020644868400504D5206C012565F30D302A
:100D30002064256C0020ED044FF0000544BF656C75
:100D400025F00605656484F83C00A06B40F225752B
:100D500040F2B17CC0F60005C0F6000CC0E90F5CA3
:100D600040F29975C0F60005C5646FF022050D606C
:100D70004D6842F2043645F080654D608D68C4F2DE
:100D8000010645F480758D604C3100F0B5F931688D
:100D90002068C906A6F541710AD0884228D14FF6CD
:100DA0000451CFF6FF71715811F0405F20D11BE064
:100DB000884215D042F20021C4F2010188420CD0D1
:100DC00042F20011C4F20101884211D13168C90612
:100DD00006D0A6F5827188420AD13168C90607D4C7
:100DE000816811F0405F03D1816841F080418160EA
:100DF000002002B070BD000070B5866D044600F0A2
:100E000081FA94F83510022925D105462068216C15
:100E1000026822F016020260426922F080024261FA
:100E200009B9A16C19B1016821F0080101600168DC
:100E300021F00101016000BF20680068C0070ED0EA
:100E400000F060FA401B0628F6D3202060650320DE
:100E500084F835000CE080206065012008E0E06D3A
:100E60003F2101FA00F0B060012084F83500002035
:100E7000002184F8341070BD90F83510022909D192
:100E8000052180F835100068016821F0010101603A
:100E9000002070478021416501207047F0B581B086
:100EA00004460020009040F20000C2F200000268F8
:100EB000D4E9166048F2B51337680821C1F64E33FD
:100EC00081403942A2FB03250CD0226813685B07DE
:100ED00008D5136823F004031360B160616D41F01D
:100EE0000101616501218140394208D022685269BF
:100EF000120604D5B160616D41F002016165042103
:100F00008140394208D022681268920704D5B16046
:100F1000616D41F00401616510218140394215D0B5
:100F200020680268120711D5B16002680168520397
:100F300006D4C90506D4016821F00801016001E06A
:100F4000080342D4216C09B120468847E16D202076
:100F500000FA01F23A4244D020680368DB0640D52B
:100F6000B26094F835300268052B1ED122F01602CB
:100F70000260426922F080024261226C0AB9A26CCE
:100F80001AB1026822F0080202603F208840B06077
:100F9000012084F83500216D0020002984F83400F8
:100FA00040D02046884701B0F0BD0168520310D4FC
:100FB000C90512D4016821F010010160012084F8F4
:100FC0003500002084F8340007E0A16C0029BBD173
:100FD000BCE7080301D4616C00E0E16B09B1204675
:100FE0008847606DF0B1606DC00717D0052084F8A8
:100FF00035002068A90A026822F00102026000BFE1
:10100000009A01328A42009202D80268D207F7D1D0
:10101000012084F83500002084F83400E16C09B127
:101020002046884701B0F0BD2DE9F041044600F0AC
:1010300069F9C4B10546022084F835000020216812
:1010400084F83400086820F00100086026683068E1
:10105000C0070BD000F056F9401B0528F6D9032134
:101060002022032042E00120BDE8F081306848F2F0
:101070003F01CFF21001251D00EA010C2ECDD4E96D
:10108000050E41EA0C01114319432943D4E90778BD
:10109000084340EA0E01606A3943042841EA080126
:1010A00003D1D4E90B23114319433160716904283A
:1010B00021F0070141EA00050CD1D4E90A1045EA04
:1010C000010538B12046FFF793FC18B101214022F9
:1010D00001200BE020467561FFF76CFCE16D3F22BB
:1010E00002FA01F18160002201210020626584F88A
:1010F0003510BDE8F0810000B0B5044690F834002A
:10110000012828D0012084F83400A56D94F835001A
:1011100001281DD1022084F835000020606520469A
:10112000FFF78EFCE26D3F23206803FA02F2216C88
:10113000AA60026842F01602026019B1016841F02B
:1011400008010160016841F0010101600020B0BDAB
:10115000002084F834000220B0BD00002DE9F04FDB
:1011600083B000F13E4202F1FF724FEAB22241F633
:1011700000470192C4F2020708224FF0010E002539
:101180004FF0000A4FF00008B84208BF0722009253
:101190000AE000BF08F101080AF1040AB8F1100FD3
:1011A00005F1020500F0A4800C680EFA08FB14EAB1
:1011B0000B09EFD04C6804F0030CACF1010EBEF14A
:1011C000010F11D80322876802FA05F6CA68B743EF
:1011D000AA403A4382604268C4F3001722EA0B0235
:1011E00007FA08F73A434260BCF1030F1CD0C2680B
:1011F00003238E6803FA05F7BA4306FA05F73A4364
:10120000BCF1020FC2600FD16FF0030202EA580274
:1012100002440AF01C060F23176A03FA06F40B694E
:10122000A743B3403B431362026803234F68AB40BC
:101230009A4307F00303AB401A4317F4403F4FF0C3
:10124000010E0260A6D0002243F644030292C4F2CB
:1012500002031A6843F6004442F480421A601A6896
:10126000C4F2010402F480420292029A28F00302BE
:101270004FF6084B2244CFF6FF7B52F80B300AF0B2
:101280000C070F26BE4023EA060C019B009E072B8D
:1012900038BF1E4606FA07F747EA0C0342F80B3040
:1012A000A2684B6842EA090743F60C4CDE0258BFBD
:1012B00022EA0907A760C4F2010CDCF800209E02B4
:1012C00042EA090758BF22EA0907CCF800706268B1
:1012D0009E0342EA090758BF22EA090767602268AD
:1012E000DB0342EA090358BF22EA0903236051E7FE
:1012F00003B0BDE8F08F00000069084018BF01206E
:101300007047000044F2E050C2F2000000687047ED
:1013100040F21E0044F2E051C2F20000C2F20001AD
:1013200000780A68104408607047000080B543F6F2
:101330000040C4F20200016841F4007101600168DC
:1013400041F480610160016841F480710160032013
:1013500000F098F80F2000F005F800F05BF800208E
:1013600080BD000070B586B0002543F640010195B0
:10137000C4F202010A68044642F010020A600968D9
:1013800001A801F0100101910199694600F02EF9C0
:10139000049E002E18BF012600F04EF94DF6836121
:1013A000B040C4F21B31A0FB01014FF0FF3000EB55
:1013B000914140F2443041F20002C2F20000C4F216
:1013C000000240F2E733C0E90021C0E902530561A1
:1013D000856100F031FB0546C0B940F24430C2F2ED
:1013E000000000F059FB054680B9362000F036F8C1
:1013F0000F2C0AD836202146002200F033F840F2A4
:101400002000C2F20000046000E00125284606B07A
:1014100070BD000080B582B0002043F6400101900D
:10142000C4F202014A6842F480424A604A6802F407
:1014300080420192019A00900868002240F080509A
:10144000086008680F2100F08050009000986FF04D
:10145000010000F007F802B080BD000080B501F087
:10146000A7FC80BD70B514460D46064601F0B0FCE1
:101470002946224601F0E0F80146304601F0B0FC72
:1014800070BD000080B501F0C5FC80BD2DE9F041C4
:10149000002800F08B8043F60808C4F202080446D6
:1014A000D8F8F8030D4600F00700884207D288F804
:1014B000F853D8F8F80300F00700A84276D1206866
:1014C000810717D5410705D5D8F8001041F4E05140
:1014D000C8F80010010705D5D8F8001041F46041A4
:1014E000C8F80010D8F80010A26821F0F0011143EC
:1014F000C8F80010C0073FD1D8F8F80300F0070083
:10150000A84207D988F8F853D8F8F80300F0070084
:10151000A8424BD12068410707D5D8F80010E268EF
:1015200021F4E0511143C8F80010000708D5D8F89D
:101530000000216920F4604040EAC100C8F80000C2
:1015400000F09EF8D8F8001047F23822C1F30311DA
:10155000C0F60002515C40F2000220FA01F140F2B4
:101560002000C2F200000068C2F200021160FFF722
:10157000F9FE0020BDE8F0816068811E022907D2D3
:1015800058F8081C89015CBF0120BDE8F08110E01B
:10159000012807D158F8081C89035CBF0120BDE869
:1015A000F08106E058F8081C890702D40120BDE844
:1015B000F081D8F8001021F003010843C8F80000BA
:1015C000FFF7A0FE064641F2883700BFD8F80000BA
:1015D000616800F00C00B0EB810F8DD0FFF792FE38
:1015E000801BB842F2D90320BDE8F0810F220260CF
:1015F00043F60802C4F20202136803F003034360D7
:10160000136803F0F0038360136803F4E053C360CE
:10161000D2F800C04FF4E05303EADC030361D2F8D0
:10162000F80300F0070008607047000040F2000077
:10163000C2F200000068704780B5FFF7F7FF43F67D
:101640000801C4F20201096847F24822C1F382216D
:10165000C0F60002515CC84080BD000080B5FFF7B5
:10166000E5FF43F60801C4F20201096847F2482287
:10167000C1F34231C0F60002515CC84080BD000099
:1016800010B543F60404C4F20204606800F00C01D3
:1016900042F200400829C0F2F40007D0042918BF24
:1016A00010BD41F20020C0F27A0010BD216801F0A7
:1016B0003F02216823684902C3F3881105D4A1FBC6
:1016C00000010023FEF7DAFD06E041F20020C0F23F
:1016D0007A004843B0FBF2F021680222C1F30141D5
:1016E00002EB4101B0FBF1F010BD00002DE9F0412B
:1016F00082B0002800F09F800446007843F6000680
:10170000C007C4F2020641D0B06800F00C00042803
:1017100005D13068800339D56068B8BB8BE0B0680C
:1017200000F00C00082802D170684002F1D465680E
:10173000B5F5803F06D03068B5F5A02F06D140F44E
:1017400080203060306840F4803005E020F4803044
:101750003060306820F480203060FFF7D3FD002D2A
:10176000054610D03068800310D4FFF7CBFD401B36
:101770006428F7D922E100BFFFF7C4FD401B6428AD
:101780004FF0030054D830688003F5D420788007E8
:101790001AD5B06810F00C0F09D0B06800F00C003A
:1017A000082840F08C807068400200F18880306822
:1017B000800702D5E06801283DD13068216920F01A
:1017C000F80040EAC10030602078000737D4207864
:1017D00040074AD4A56955B3B06800F00C0008284A
:1017E00040F0A080012D26D07068E16900F48002ED
:1017F0008A4220D1216A00F03F028A421BD147F67B
:10180000C071626A0140B1EB821F14D1A16A4FF628
:10181000FF73C903994300F44032A1F580318A4235
:1018200009D1E16A00F07060B0EB016F03D10020D4
:1018300002B0BDE8F081012002B0BDE8F08160692E
:10184000002840F20000C4F247205AD00121C0F81D
:10185000801EFFF757FD0546706F8007B7D4FFF76E
:1018600051FD401B0228F7D9A8E0306C4FF000086A
:10187000C0000CD4CDF80480306C4FF0010840F06B
:1018800080503064306C00F080500190019847F235
:101890000007C4F200073868C00525D4386840F452
:1018A00080703860FFF72EFD054600BF3868C00520
:1018B0001AD4FFF727FD401B0228F7D97EE0E06825
:1018C000002851D00020C4F2472001210160FFF719
:1018D00019FD0546306880073FF56FAFFFF712FD31
:1018E000401B0228F6D969E0A568012D05D0306FAC
:1018F000052D4DD140F004003067306F40F00100FD
:101900004CE00021C0F8801EFFF7FCFC054600BF3C
:10191000706F80077FF55BAFFFF7F4FC401B022878
:10192000F6D94BE00027C4F2472700203866FFF7BE
:10193000E9FC022D05460BD13068800156D5FFF732
:10194000E1FC401B02284FF00300F5D970E700BF0F
:10195000306880017FF56BAFFFF7D4FC401B022895
:101960004FF00300F4D963E70020C4F247200021C0
:101970000160FFF7C7FC0546306880077FF524AF9C
:10198000FFF7C0FC401B02284FF00300F4D94FE7DB
:1019900020F001003067306F20F004003067FFF75F
:1019A000B1FC002D054641F2883713D0306F800717
:1019B00013D4FFF7A7FC401BB842F7D9032002B0AD
:1019C000BDE8F081FFF79EFC401BB8424FF00300DA
:1019D0003FF62EAF306F8007F4D4B8F1000F3FF41C
:1019E000F9AE306C20F080503064F3E604F11C0551
:1019F0002FCD084340EA8210D9034FF6FF7291437E
:101A0000A1F5803140EA0560084370600120386626
:101A1000FFF778FC044600BF306880013FF507AF50
:101A2000FFF770FC001B02284FF00300F4D9FFE61B
:101A30007047000070470000002804BF0120704775
:101A400010B5044690F83D0028B9002084F83C0009
:101A5000204600F01FF8022084F83D002068211D78
:101A600000F0CAFE012084F8460084F83E0084F8A5
:101A70003F0084F8400084F8410084F8420084F874
:101A8000430084F8440084F8450084F83D000020B9
:101A900010BD00007047000090F83D1001291CBFE8
:101AA00001207047022180F83D10006841F2FF726A
:101AB000C168C4F20002904241F00101C1600DDC36
:101AC00040F2FF71C4F20001884215DCB0F1804F92
:101AD00029D040F20041C4F2000122E040F2FF317F
:101AE000C4F20101884212DC41F60001C4F2000197
:101AF000884218D0002112E040F60001C4F2000133
:101B0000884210D040F60041C4F2000109E044F2DE
:101B10000001C4F20101884205D040F20041C4F244
:101B20000101884206D1816801F00701062904BF3E
:101B300000207047016841F00101016000207047FA
:101B400070470000B0B504460068C168026902EA47
:101B50000105A9071DD4680731D4280747D4E80632
:101B60005CD4E80773D128067BD4680606D52068C4
:101B70006FF040010161204600F08EF8A80658BFC2
:101B8000B0BD20686FF0200101612046FFF752FFD1
:101B9000B0BD6FF0020101610121217780698007EA
:101BA00003D02046FFF7CCFF05E0204600F064F8A4
:101BB000204600F063F8002020776807CDD5206824
:101BC0006FF00401016102212177806910F4407FE8
:101BD00003D02046FFF7B4FF05E0204600F04CF8A4
:101BE000204600F04BF8002020772807B7D5206862
:101BF0006FF00801016104212177C069800703D0DB
:101C00002046FFF79DFF05E0204600F035F820460E
:101C100000F034F800202077E806A2D520686FF0A5
:101C20001001016108212177C06910F4407F03D0C1
:101C30002046FFF785FF05E0204600F01DF820460E
:101C400000F01CF800202077E8073FF48CAF2068F4
:101C50006FF001010161204600F012F828067FF5BF
:101C600084AF20686FF0800101612046FFF7E0FE3D
:101C700068067FF583AF7AE7704700007047000081
:101C800080B5006841F20001C4F20001884208BF3B
:101C9000FFF73EFB80BD00007047000070B582B0CA
:101CA000044690F84200202822D100294FF0010577
:101CB00018BF002A1DD00125002620462563666333
:101CC00000F0EEFF206B012813D101962068016817
:101CD0000191406801900198206850E8030F216845
:101CE00040F0100041E80302002AF5D1002500E091
:101CF0000225284602B070BD70B584B0044640F29B
:101D0000D430C2F2000084424DD140F6D010C2F26D
:101D10000000016840F6AC1540F21C460131C2F2E9
:101D20000005C2F20006016028463146FEF7CCFDF0
:101D3000307981281BD146F62360019000207188FC
:101D400002904FF00C50039008BA000CADF806005A
:101D5000D6F80600D6F80910029040F28C30CDF883
:101D60000B10C2F2000001A90C2200F0BBFA002007
:101D7000C5E90000C5E90200C5E90400C5E906009F
:101D800040F2D430C2F2000029462022FFF786FF3D
:101D900040F28C3040F20C11C2F20000C2F200019D
:101DA0000C22FFF77BFF40F28C30C2F2000084422D
:101DB00001D004B070BD40F2181140F20C14C2F210
:101DC0000001C2F200040A682078013201280A608A
:101DD00015D06D281BD1E07840F21A01C2F2000143
:101DE0008870B4F801002268088040F28C300192BB
:101DF000C2F2000001A9042200F074FA07E0627840
:101E000040F2E800C2F20000214602F043F900204F
:101E1000C4E90000A06040F28C30C2F2000021460C
:101E20000C22FFF73BFF40F2D43040F6AC11C2F277
:101E30000000C2F200012022FFF730FF04B070BDA5
:101E40007047000070B582B0036804461868D9680E
:101E50005D6900F02F02202A01F0200205D122B195
:101E6000204600F04BFE02B070BD5FEA007C08D057
:101E700005F0010E11F4907F8EF001054FD1002D79
:101E80004DD0226B0840C1063FD5012A3DD100202C
:101E900001901868019058680190019858694006AF
:101EA00000F19C80A08DE18DE28D002A1CBF401ABC
:101EB0005FEA004102D102B070BD00BF216851E865
:101EC000031F226821F4907142E80313002BF5D11F
:101ED000216851E8051F226821F0010142E805133D
:101EE000002BF5D1202184F842100021216300BF8E
:101EF000216851E8031F226821F0100142E8031312
:101F0000002BF5D102216163AEE0010600F1B28041
:101F10004006D0D5204600F0D7FD02B070BDC30703
:101F200018BF11F4807303D0636C43F00103636442
:101F300000F00406012383EA96062E4303D1666C63
:101F400046F00206666400F0020683EA56032B435D
:101F500003D1636C43F00403636452EA0E0218BFBA
:101F60000122BCF1000F04D51AB1626C42F00802E4
:101F70006264626C002A9ED00840800602D520462A
:101F800000F0BCFD20684069616C00F0400001F089
:101F90000801401878D0204600F06EFD20684069A6
:101FA00040066CD5206850E8050F216820F04000FD
:101FB00041E80502002AF5D1E06B00285FD042F627
:101FC0002D11C0F600010165FEF756FF00283FF411
:101FD00072AFE06B016D884702B070BDE06B0168C5
:101FE00049688AB2002A3FF466AFA38D9A42BFF4D3
:101FF00062AFE185C069B0F5807F30D0206850E8DD
:10200000030F216820F4807041E80302002AF5D113
:10201000206850E8050F216820F0010041E8050222
:10202000002AF5D1206850E8050F216820F0400013
:1020300041E80502002AF5D1202084F84200002062
:10204000206300BF206850E8030F216820F01000D3
:1020500041E80302002AF5D1E06BFEF7CDFE022035
:102060006063A08DE18D401A81B22046FFF744FEE7
:1020700002B070BD204600F05FFE02B070BD204689
:10208000FFF7DEFE02B070BD2046FFF7D9FE00204C
:10209000606402B070BD0000002804BF01207047DA
:1020A00010B5044690F8410028B9002084F840009B
:1020B000204600F021F8242084F841002068C168FF
:1020C00021F40051C160204600F07CFD20680169C8
:1020D00021F490410161416921F02A014161C16807
:1020E00041F40051C16000202021606484F8411057
:1020F00084F84210606310BD2DE9F04387B00026DC
:10210000CDE90566CDE903660446006844F2004166
:10211000C4F20001884202966ED041F20001C4F27E
:102120000101884240F0D780002643F63000019636
:10213000C4F20200416946F2880841F01001416191
:102140004169C4F2020801F0100101910199019660
:10215000016841F001010160006802A900F001007E
:10216000019001984FF4C06002900220CDE903066F
:1021700003200590072006900020C4F20200FEF71D
:10218000EDFF40F2242508F58660C2F200054FF00D
:1021900000674021C5E9000705F108004FF4806998
:1021A00080E842022846C5E90566C5E907666E6211
:1021B000FEF73AFF002818BFFEF75CFCA563AC638E
:1021C00040F2C41508F56E70C2F20005C5E90007BB
:1021D0002846C5E90266C5E90496C5E90666C5E96B
:1021E0000866FEF721FF002818BFFEF743FCE563F1
:1021F00005F13800252565E043F630000196C4F26C
:102200000200016946F2880841F400310161016968
:10221000C4F2020801F400310191019901960168AC
:1022200041F008010160006802A900F00800019077
:102230000198602002900220CDE90306032005905A
:10224000072006900020C4F2020000F54060FEF76F
:1022500085FF40F28425C2F200054FF000674FF47D
:1022600080692846C5E90087C5E90266C5E9049684
:10227000C5E90666C5E90866FEF7D6FE002818BF60
:10228000FEF7F8FBE563AC6340F2E42508F11800C3
:10229000C2F200054021C5E9000705F1080000224F
:1022A00080E806022846C5E90522C5E907226A62D8
:1022B000FEF7BAFE002818BFFEF7DCFBA56305F1A8
:1022C000380026250460284605210022FFF7CAF8B9
:1022D0002846FFF7C3F807B0BDE8F0837047000059
:1022E00070470000B0B5044690F8410020281CBF9C
:1022F0000220B0BD4FF0010089B3002A134608BF89
:10230000B0BD4FF0000C21202162A384E384C4F807
:1023100044C084F84100A06B42F62D2E42F66D2594
:102320002268C0F6000EC0F60005C0E90FE542F6CF
:102330003D15C0F600050432C0E9135CFEF7DCFE73
:1023400020686FF040010160206850E8050F2168A7
:1023500040F0800041E80502002AF5D10020B0BD20
:102360007047000070470000FEE70000B0B584B081
:1023700040F21C1001230024C2F2000042F20001CE
:10238000C0F60073C4F201010125047680F82040F4
:10239000C0E90A340423CDE90244CDE900444FF4F6
:1023A0008032C36180F8305080E81600C0E90345F0
:1023B0004561FEF7EDFB002818BFFEF75BFB40F21E
:1023C0001C10C2F200006946CDE900450295FEF7F7
:1023D00055FB002818BFFEF74DFB0120009040F28E
:1023E0001C100224C2F2000069460194FEF746FB6D
:1023F000002818BFFEF73EFB40F21C100094032497
:10240000C2F2000069460194FEF738FB002818BFAD
:10241000FEF730FB0420019040F21C10C2F20000D5
:1024200069460094FEF72AFB002818BFFEF722FB3E
:1024300004B0B0BD80B582B0002043F630010190F9
:10244000C4F202010A6842F480020A600A6802F4D7
:1024500080020192019A00900868002240F4001066
:1024600008600868052100F4001000900098102012
:10247000FEF7F8FF1020FEF7F1FF112005210022E2
:10248000FEF7F0FF1120FEF7E9FF382005210022BA
:10249000FEF7E8FF3820FEF7E1FF3A200521002291
:1024A000FEF7E0FF3A20FEF7D9FF46200521002283
:1024B000FEF7D8FF4620FEF7D1FF02B080BD000036
:1024C00080B542F20D7047F27422C0F60000C0F6EB
:1024D0000002002100F0EAFE40F20811C2F2000101
:1024E000086042F6356047F25022C0F60000C0F6A0
:1024F0000002002100F0DAFE40F20011C2F20001F9
:10250000086044F2613047F2C822C0F60000C0F60D
:102510000002002100F0CAFE40F6CC11C2F2000118
:10252000086080BD70B586B0002643F63000059681
:10253000CDE90366CDE901660096C4F202000168A8
:1025400040F6004441F0100101600168C4F2020449
:1025500001F01001009100990096016801AD41F071
:1025600080010160016801F08001009100990096EE
:10257000016841F001010160016801F00101009171
:1025800000990096016841F0080101600068294641
:1025900000F008000090009843F6FF70CDE90106B6
:1025A00004F580600396FEF7D9FD4FF4FC40CDE9B9
:1025B0000106204629460396FEF7D0FD06B070BD01
:1025C00080B540F28C3041F20001C2F20000C4F24A
:1025D000010100234FF00C0C4FF4E13280E80E00B3
:1025E000C0E90333C0E905C3C361FFF755FD002807
:1025F00018BFFEF73FFA80BD80B540F2D43044F2F8
:102600000041C2F20000C4F2000100234FF00C0CA4
:102610004FF4E13280E80E00C0E90333C0E905C39E
:10262000C361FFF739FD002818BFFEF723FA80BD0C
:10263000FEE70000FEE7000000F0070080F007035F
:10264000042B28BF04234FF0FF3C03380CFA03F39C
:1026500038BF0020994381400CFA00F022EA0000C4
:102660000843704700000000000000000000000068
:10267000EFF30980BFF36F8F154B1A681EF0100F30
:1026800008BF20ED108A20E9F04F10602DE9090005
:102690004FF0500080F31188BFF34F8FBFF36F8F5F
:1026A00002F0D2F84FF0000080F31188BDE8090075
:1026B00019680868B0E8F04F1EF0100F08BFB0ECC2
:1026C000108A80F30988BFF36F8F704700BF00BF87
:1026D00030050020000000000000000000000000A5
:1026E000074B19680868B0E8F04F80F30988BFF31A
:1026F0006F8F4FF0000080F31188704700BF00BF5C
:102700003005002080B500F07DFB80BD4FF4FA70ED
:1027100000F08EFDFAE7000080B54EF21000CEF218
:102720000000006802F0BCFC012818BF02F066F946
:1027300080BD000070B592B006AC20463021FDF798
:1027400024FF002543F640000595CDE90355CDE96A
:1027500001550095C4F202000168022641F0805143
:102760000160006800F080500090009847F200007F
:102770000095C4F20000016841F4804101600068E6
:1027800000F48040009000980120099010200A90E9
:1027900008200696CDE90C650E90A820CDE90F061D
:1027A000042011902046FEF7A1FF88B90F20CDE943
:1027B00001064FF4A05004904FF48050059001A8FA
:1027C00005210395FEF762FE002804BF12B070BD1C
:1027D000FEF750F94EF68850CEF20000016841F441
:1027E000700101607047000080B540F24430C2F2D1
:1027F0000000FFF7A7F980BD10B540F6FF3E036863
:10280000C4F2000E40F2004C7045C4F2010C0FDC23
:10281000B0F1804F19D040F20042C4F20002904261
:1028200013D040F60002C4F2000290420DD010E036
:1028300040F60042C4F20002904206D0604504D047
:102840000022C4F20102904203D14A6823F07003CF
:10285000134341F6FF72C4F2000290420DDC704552
:102860001FDCB0F1804F41D040F20042C4F20002C0
:1028700090423BD040F6000221E043F6FF72C4F2E2
:102880000102904220DC42F20002C4F200029042B7
:102890002CD00022C4F20102904227D0604525D0FE
:1028A00028E040F60042C4F2000290421ED041F6F9
:1028B0000002C4F20002904218D041F60042C4F275
:1028C0000002904212D015E044F20002C4F201026C
:1028D00090420BD044F60002C4F20102904205D0AF
:1028E00044F20042C4F20102904203D1CA6823F4C8
:1028F0004073134323F080024B69D1F800E08C68E9
:102900001A430260C46240F48062C0F828E0624565
:1029100004BF09690163012141610169C90708BF59
:1029200010BD016921F00101016110BD80B5806B0E
:102930000021C185C184FFF783FA80BD10B5846B87
:102940002068406994F84110212907D110F08000D7
:1029500004D00020E084204600F0C2F820684069DE
:1029600094F84210222907D110F0400004D0002032
:10297000E085204600F080F8606C40F01000606454
:102980002046FFF75DFA10BD80B50168806B0968CD
:10299000C9052FD40021C185016851E8031F0268D1
:1029A00021F4807142E80313002BF5D1016851E84E
:1029B000051F026821F0010142E80513002BF5D143
:1029C000016851E8051F026821F0400142E8051343
:1029D000002BF5D1202180F84210016B012909D18B
:1029E000016851E8031F026821F0100142E8031357
:1029F000002BF5D100214163016B012903D1818DA9
:102A0000FFF77AF980BDFFF769FC80BD80B5806B68
:102A100001214163016B012904D1818D4908FFF730
:102A20006BF980BDFFF75CFC80BD000080B50168DC
:102A3000806B0968C90516D40021C184016851E87A
:102A4000051F026821F0800142E80513002BF5D133
:102A5000016851E8031F026841F0400142E8031396
:102A6000002BF5D180BDFFF77BFC80BD80B5806B6E
:102A7000FFF778FC80BD0000016851E8031F026881
:102A800021F4907142E80313002BF5D1016851E85D
:102A9000051F026821F0010142E80513002BF5D162
:102AA000016B01290AD100BF016851E8031F0268C8
:102AB00021F0100142E80313002BF5D1202180F80A
:102AC000421000210163704780B50168CA6822F096
:102AD0004002CA60202180F84110FFF741FC80BD10
:102AE000016851E8031F026821F0C00142E80313A6
:102AF000002BF5D1202180F84110704780B582B0BD
:102B000090F8421022291ED18268B2F5805F02D16E
:102B1000016900294AD0816AB2F5805F07D00AB9FD
:102B2000026922B10268526802F07F0201E0026885
:102B300052680A700121826A11448162C18D013993
:102B40000A04C18501D002B080BD0168CA6822F0C4
:102B50002002CA60CA6822F48072CA604A6922F000
:102B600001024A61202180F8421000214163026B7A
:102B7000012A23D1016300BF016851E8031F0268E5
:102B800021F0100142E80313002BF5D101680A6817
:102B9000D20606D5002201920A6801924968019185
:102BA0000199818DFFF7A8F802B080BD0168826AA3
:102BB00049686FF35F2111800221BCE7FFF78EFBAC
:102BC00002B080BD10B504460068D4E902C2236992
:102BD000016921F4405111430161626943EA0C012A
:102BE000E3691143C268194349F20C639A431143E4
:102BF000C1604169A26921F4407141F2004311436F
:102C000040F48062C4F201039A42416102D1FEF7AE
:102C100025FD01E0FEF710FDE16963681922B1F5B9
:102C2000004FA0FB02011CD15A00DB0FFDF726FB71
:102C300048F21F51C5F2EB11A0FB01235A096FF0B6
:102C4000630302FB0300322303EBC000A0FB01017E
:102C50004FF4F87000EA111000EB0210C1F34211BA
:102C60001AE09A009B0FFDF709FB48F21F51C5F2CD
:102C7000EB11A0FB01235A096FF0630302FB030071
:102C8000322303EB0010A0FB0101F02000EA5110F9
:102C900000EB0210C1F3431122680843906010BD9D
:102CA00070B582B01346002604468162838546646F
:102CB000222084F842000A462168E06B42F6891C13
:102CC00042F60D2E42F63D15C0F6000CC0F6000E81
:102CD000C0F600050431C0E90FCEC0E91356FEF777
:102CE0000BFA0196206801680191406801900198F3
:102CF000206948B1206850E8030F216840F48070D3
:102D000041E80302002AF5D1206850E8050F216848
:102D100040F0010041E80502002AF5D1206850E8A2
:102D2000050F216840F0400041E80502002AF5D176
:102D3000002002B070BD000090F84110212923D17D
:102D40008168B1F5805F01D1016931B1016A026822
:102D50004B1C03620978516007E0016A036831F88F
:102D6000022B6FF35F225A600162C18C01390A04A1
:102D7000C18418BF70470068C16821F08001C1603C
:102D8000C16841F04001C1607047000080B540F269
:102D90008C30C2F20000FFF755F880BD80B540F2DC
:102DA000D430C2F20000FFF74DF880BDFEE700000E
:102DB000002848BF704700F01F01012202FA01F10C
:102DC0004EF200124009CEF2000242F82010704785
:102DD0004EF60C50CEF200000068C0F3022070479F
:102DE0004EF6145300F00F02CEF2000309011A440C
:102DF00000F16043B0F1FF3FC8BF03F564421170BA
:102E0000704700004EF61F50CEF200000021017006
:102E1000704700004EF60C51CEF200010A684FF6E2
:102E2000FF031A4060F30A2242F0806040F0FD7018
:102E30000860704786B041F2000B40F2B00A40F2E1
:102E4000900540F2C809C4F2020BC2F2000AC2F2B5
:102E50000005C2F200090DE040F28C3040F204019E
:102E6000C2F20000C2F200011022FFF73BFA0F206D
:102E700000F0DEF940F2880440F21C10C2F20004B7
:102E8000C2F2000021460422FDF704FF584601214A
:102E9000FEF732FA8AF8000058460221FEF72CFAB3
:102EA0008AF8020058460421FEF726FA8AF8020042
:102EB00058460821FEF720FA8AF8030058461021E8
:102EC000FEF71AFA8AF8040058462021FEF714FA91
:102ED0008AF8050058464021FEF70EFA8AF80600E7
:102EE00058468021FEF708FA8AF8070058464FF442
:102EF0008071FEF701FA8AF8080058464FF4007115
:102F0000FEF7FAF98AF8090058464FF48061FEF797
:102F1000F3F98AF80A0058464FF40061FEF7ECF91D
:102F20008AF80B0058464FF48051FEF7E5F98AF80D
:102F30000C0058464FF40051FEF7DEF9ABF58068FF
:102F40008AF80D0040464FF40071FEF7D5F98AF873
:102F50000F0040464FF48061FEF7CEF98AF810006A
:102F600040464FF40061FEF7C7F98AF80E0040466C
:102F70004FF48051FEF7C0F98AF8120040464FF432
:102F80000051FEF7B9F98AF8130040464FF480412A
:102F9000FEF7B2F98AF81100052000F049F92888F7
:102FA00000EE100AB8EE400A2188081A01EE100A55
:102FB00040F21400C2F20000B8EEC11A90ED002AEF
:102FC00022EE011A31EE000ABDEEC00A698810EE49
:102FD000100A00EE101A2880B8EE400A6288511AD2
:102FE00001EE101AB8EEC11A22EE011A31EE000AF3
:102FF000BDEEC00AAA8810EE101A00EE102A6980F1
:10300000B8EE400AA3889A1A01EE102AB8EEC11A47
:1030100022EE011A31EE000ABDEEC00AEB8810EE76
:10302000102A00EE103AAA80B8EE400AE688F31A99
:1030300001EE103AB8EEC11A22EE011A40F6AA13B8
:1030400031EE000AC2F20003BDEEC00A1E7810EE97
:10305000103AEB8096B140F2E807C2F200073E8AD0
:10306000801B7E8AA9F80200881BB98AA9F804008F
:10307000501AF98AA9F80600581A0DE0A0F5006068
:10308000A9F80200A1F50060A9F80400A2F500600B
:10309000A9F80600A3F50060A9F80800484600F06A
:1030A00099FF9AF800009AF8021089F81C00484627
:1030B00089F81D1000F0C0FE484600F053FF40F2B2
:1030C0000418D9E90464C2F20008002088F800005E
:1030D00002A899E80E10D9E90657CDE900C6B0C09C
:1030E00040F29800C2F2000041F20227059701F079
:1030F0001FF840F29005C2F200052888698800BADE
:1031000040F20407000CC2F20007788008BAA988D0
:10311000000CB88008BA000CF880E888012100BAD9
:10312000000C3881504688F8001000F02FF8064651
:103130000AF1080000F02AF804460AF1100000F035
:1031400025F89AF80A2084EA060138734840012AD3
:10315000BE72FC7278737FF47FAE9AF80D0001287E
:103160007FF47AAE40F21A00C2F20000002100F0B3
:1031700059FF00283FF470AE40F28C3047F298219E
:10318000C2F20000C0F600010C226EE680B50021FC
:103190004FF0010C002300BF425C0CFA01FE002A34
:1031A00001F1010118BF43EA0E030829F4D1D8B296
:1031B00080BD0000FEF7BAF8FFF7BCFAFFF7B2F9DE
:1031C000FFF738F9FFF7D2F8FFF7FAF9FFF714FA2B
:1031D00040F2D43040F6AC11C2F20000C2F200015D
:1031E0002022FEF75BFD40F28C3040F20C11C2F25F
:1031F0000000C2F200010C22FEF750FD40F2C410A4
:10320000C2F200000068016821F00801016040F28C
:103210008420C2F200000068016821F0080101600A
:1032200000F016F8FFF74CF900F026F8FEE7000072
:10323000EFF3058100291CBF6FF0050070470028DF
:1032400004BF0020704780B501F028FA002080BD3F
:10325000EFF3058000281CBF6FF00500704740F2B7
:10326000AC00C2F200000168002911BF4FF0FF302E
:10327000012101600020704710B5EFF305800028A0
:103280001CBF6FF0050010BD40F2AC04C2F2000498
:10329000206801281CBF4FF0FF3010BDFFF732FA45
:1032A0000220206001F074FA002010BD70B584B0D7
:1032B0008E46002100280391EFF305814DD00029AF
:1032C0004BD1F2B19369002B08BF1823382B15D8C6
:1032D0001179C90712D15569946811684FEA950CA4
:1032E000002D08BF4FF0800C9CB1D6685C2E0FD328
:1032F00075B1156965B1012484B922E0002004B0DC
:1033000070BD002118234FF0800C002434B918E060
:103310000CB9D46874B14FF0FF3494B1012C1CD1B6
:1033200094681269CDE9003262467346029401F056
:103330007BFE11E01469002C18BF4FF0FF34002C05
:10334000ECD103AC00931FFA8CF27346019401F0A8
:1033500037FE012801D000200390039804B070BD0F
:10336000F0B581B00D4644F6AC5140F23056C2F291
:103370000001C2F200060F6831680446081D01F022
:1033800013F8601C0AD14DB13068011D44F6845019
:10339000C2F2000001F066F801B0F0BD3068E41937
:1033A00044600AD340F24050C2F200000068316825
:1033B000043101F039F801B0F0BD40F23850C2F2EA
:1033C000000000683168043101F02EF844F6105016
:1033D000C2F2000001688C4238BF046001B0F0BD49
:1033E00070B5044601F056F844F2E450C2F2000011
:1033F000016840F2305501310160C2F200052968D0
:1034000044F67856C2F2000641B1306860B92868C7
:10341000E16AC06A884298BF2C6005E02C600068B1
:10342000012801D100F0C4F944F2F050C2F20000CA
:10343000016801310160616444F2F451C2F200019B
:10344000E06A0A68904288BF086040F2485100EB89
:103450008000C2F2000101EB8000211D01F002F8A2
:1034600001F03CF8306880B12868E16AC06A88429F
:1034700028BF70BD4EF60450CEF200004FF08051D0
:103480000160BFF34F8FBFF36F8F70BD70B582B017
:1034900001F000F844F6B056C2F20006306850BBA6
:1034A00044F6B044C2F20004204600F0ADFF44F6FA
:1034B000C445C2F20005284600F0A6FF40F2345091
:1034C000C2F20000046040F24450C2F2000040F238
:1034D0003C4240F2DC4305600025C2F20002C2F229
:1034E00000030A201021009501F0A0FA306010B10D
:1034F00003A101F09DF800F0F1FF02B070BD00BF24
:10350000546D725100000000F0B581B044F2E855EE
:10351000C2F200052868E0B144F6985644F2E45738
:10352000C2F20006C2F2000700F0B4FFF068C468FF
:10353000201D00F039FF38680138386028680138EC
:10354000286000F0CBFF204600F058F828680028DB
:10355000EAD101B0F0BD000080B5026C002A08BFBE
:1035600080BDD0E902C31344C360634524BF036830
:10357000C360C36808461946FCF788FF80BD000099
:1035800070B5866B036C0446E3B115461AB3E06868
:103590001A46FCF77BFFE168206C2268091A914209
:1035A000E16003D2A16840420844E060A81EB0FA7E
:1035B00080F040093146002E18BF01210840361A1C
:1035C000002516E02068002598B9A06801F02CFEBF
:1035D000A56005460DE060681A46FCF757FF216CB0
:1035E000D4E90102002508446060904224BF2068AD
:1035F0006060711C2846A16370BD000010B50446D0
:1036000090F85900022808BF10BD012803D030B936
:10361000206B00F07BFF204600F078FF10BD4FF0DC
:10362000500080F31188BFF36F8FBFF34F8F00BF3F
:10363000FEE7000040F23451C2F2000109680A6856
:10364000B2FA82F35B090360002A0EBF0020C8684B
:103650000068704740F6D810C2F20000C21D22F088
:10366000070210F0070CA0EB020318BF104644F647
:103670007C52C2F200020021C2E900014FF47052F4
:10368000BCF1000F18BF03F570520244083A40F233
:103690003C5322F00702C2F200031A60C2E9001193
:1036A000111A1A68C0E9002144F60C50C2F2000059
:1036B000016044F60450C2F20000016044F6D840B4
:1036C000C2F20000012101707047000040F248542E
:1036D0004EF60455C2F20004CEF200054FF08056BB
:1036E000FFF712FF20680228FAD32E60BFF34F8F36
:1036F000BFF36F8FF4E70000B0B5049D002914BF3D
:103700002A602D60C5E90F01284601211C4601F001
:10371000D9F985F84C40B0BD2DE9F0470A9C8246A6
:10372000206B16460F46DDE908599100A522984600
:10373000FCF723FF206B00EB8600A0F1040020F0D3
:1037400007067FB104F13400002100BF7A5C4254C7
:103750007A5C1AB10F2901F10101F7D3002084F836
:10376000430002E0002084F834000027201D372D9C
:1037700028BF3725E562C4E9135700F051FE04F174
:10378000180000F04DFEC5F13800A06130465146EA
:10379000424624616462676584F8587000F038FB23
:1037A000B9F1000F206018BFC9F80040BDE8F087EC
:1037B000B0B540F248550024C2F20005281900F0C7
:1037C00023FE1434B4F58C6FF8D144F6DC44C2F215
:1037D0000004204600F018FE44F6F045C2F2000551
:1037E000284600F011FE44F62450C2F2000000F01A
:1037F0000BFE44F69850C2F2000000F005FE44F6BD
:103800008450C2F2000000F0FFFD40F23850C2F2D6
:103810000000046040F24050C2F200000560B0BDFC
:1038200080B544F67C52C2F2000200BF1146126815
:103830008242FBD3D1F804C001EB0C03834203D1D5
:103840004068604448600846D0F804E000EB0E038E
:10385000934201D0026010E040F23C53C2F20003F8
:10386000D3F800C0624506D00B6852681B687244EA
:10387000C0E9003201E0C0F800C0814218BF086012
:1038800080BD000080B58C46014641F804CF9445C8
:10389000006108D99A4201D29C4511D240F23450BD
:1038A000C2F2000007E08069D21A824208D240F2D8
:1038B0004450C2F20000006800F0B6FD002080BD58
:1038C000012080BD10B5044600F0E4FDA06BB0FA05
:1038D00080F0440900F002FE204610BD10B50446F9
:1038E00000F0D8FDA06BE16B401AB0FA80F04409FB
:1038F00000F0F4FD204610BD08480068006880F321
:1039000008884FF0000080F3148862B661B6BFF3F8
:103910004F8FBFF36F8F00DF00BF00BF08ED00E0E7
:1039200070B582B040F23452C2F20002126805460D
:10393000D2680E46D468201D00F036FD94F82800A9
:10394000410704D400F0FE0084F8280010E0A069CC
:103950003246411920462B46FFF794FF40B100261E
:10396000204600212A460023009601F0B9FD20B12F
:10397000216A2046884702B070BD4FF0500080F3A6
:103980001188BFF36F8FBFF34F8F00BFFEE70000BA
:103990002DE9F04186B044F6B057C2F2000738680E
:1039A00002A900224FF0000801F006FA00286AD0B0
:1039B00001AC02AD0BE000F0FE0086F8280000BF6D
:1039C00038682946002201F0F7F900285BD00298F8
:1039D000B0F1FF3F03DCDDE9032005999047029831
:1039E0000028EDD4049E706910B1301D00F0DCFC9D
:1039F000204600F0B3F802990929E1D80246DFE831
:103A000001F0080808052A390808052A96F8280050
:103A1000D1E796F82800039BB16940F0010086F8D1
:103A2000280019443046FFF72DFF0028C8D0316A1E
:103A30003046884796F828004007C1D50398B169F9
:103A400000230A1830460021CDF8008001F048FD1F
:103A50000028B5D123E096F8280040F00101039832
:103A600086F82810B06188B1811830461346FFF7F8
:103A700009FFA5E796F8280081073FF59CAF30467F
:103A800000F044FD9CE706B0BDE8F0814FF0500027
:103A900080F31188BFF36F8FBFF34F8FFEE74FF0B6
:103AA000500080F31188BFF36F8FBFF34F8F00BFBB
:103AB000FEE7000070B582B00E46044600F0BCFE82
:103AC00001A800F04BF8019919B101F03FFC02B0D8
:103AD00070BD05464EB9A54207D301F037FC20461C
:103AE0002946FFF71DFF02B070BD4EB140F24450B1
:103AF000C2F2000000680068B0FA80F0420900E0FD
:103B0000002244F6B050C2F200000068611B00F0D1
:103B1000A3FD01F01BFC0028D9D14EF60450CEF2D3
:103B200000004FF080510160BFF34F8FBFF36F8FE4
:103B300002B070BD40F23850C2F20000016809685E
:103B400021B10068C068C068406801E04FF0FF30F4
:103B500044F61051C2F200010860704770B5044687
:103B600001F0B2FA40F22C56C2F200063168054666
:103B7000884203D200F008F8012000E00020206015
:103B80002846356070BD00002DE9F04182B040F25A
:103B90003457C2F200073868016891B34FF000084B
:103BA00009E000BF606038682946246100F03CFCF1
:103BB0003868016829B3C068C4680668251D2846AE
:103BC00000F0F2FB216A2046884794F8280040075D
:103BD000EED5A0693044B042E4D8204600213246F8
:103BE0000023CDF8008001F07BFC0028E0D14FF0ED
:103BF000500080F31188BFF36F8FBFF34F8F00BF6A
:103C0000FEE740F24451C2F200010A6808603A60DF
:103C100002B0BDE8F081000081B00020009040F2C9
:103C20002400C2F2000000684FF0500181F31188B7
:103C3000BFF36F8FBFF34F8F013001D0FEE700BF9E
:103C400000980028FCD001B07047000082B001ACA1
:103C50002046FFF7EFFC0199FFF72CFFFFF798FED6
:103C6000F6E70000F0B581B0044600F013FC94F9CB
:103C70004560012E0FDB04F1240500BF286850B118
:103C8000284601F01BFB002818BF00F03FFD70B272
:103C9000013E0128F2DCFF2684F8456000F01EFC9E
:103CA00000F0F8FB94F94470012F0EDB04F11005CD
:103CB000286850B1284601F001FB002818BF00F029
:103CC00025FD78B2013F0128F2DC84F8446000F061
:103CD00005FC01B0F0BD00002DE9F047044600F0FE
:103CE000ABFD40F23C5AC2F2000ADAF800000028AC
:103CF00008BFFFF7AFFC44F6D840C2F200000578D9
:103D0000002D18BF4FF0004525420ED0002401F0D1
:103D10001DFB600735D04FF0500080F31188BFF3D2
:103D20006F8FBFF34F8F00BFFEE74CB1083414F024
:103D300007001EBF201A00F108045FEA447023D177
:103D400044F60458C2F20008D8F80090601E4845B6
:103D5000DCD244F67C50C2F200000668374657F8C1
:103D6000041FA1421DD23068B8B100BF304636688A
:103D7000374657F8041FA14213D23268002AF5D102
:103D80000FE02046BDE8F0874FF0500080F3118827
:103D9000BFF36F8FBFF34F8FFEE744F67C50C2F244
:103DA0000000DAF800209642B0D0D0F800A03268C7
:103DB000091B1129026010D33019420709D04FF0B6
:103DC000500080F31188BFF36F8FBFF34F8F00BF98
:103DD000FEE741603C60FFF723FD44F60C51386874
:103DE000C2F200010B68A9EB00029A42C8F8002059
:103DF00038BF0A600021316044F61851C2F2000158
:103E00000A6828430AF108043860501C08607EE7FD
:103E1000034643F61940C0F600004FF0807C21F0C5
:103E2000010103E903106FF0020043F8240CA3F131
:103E3000440043F8202C70472DE9F04F81B040F644
:103E4000AA11C2F200010978002900F08880B0F9B7
:103E500002500446B0F904A0B0F90690B0F9088009
:103E6000284602F046FD40F2E80BC2F2000B06467F
:103E7000BBF802000F46BBF81010002DD8BF084653
:103E8000BBF8002080B2C8BF0A4691B2401A02F0C7
:103E900030FD02460B463046394602F0A3FB02F0E5
:103EA000B3FAE060504602F024FD0546BBF8060078
:103EB0000E46BBF81210BAF1000FD8BF0846BBF887
:103EC000042080B2C8BF0A4691B2401A02F011FD28
:103ED00002460B462846314602F084FB02F094FA73
:103EE0002061484602F005FD0546BBF80A000E4673
:103EF000BBF81410B9F1000FD8BF0846BBF8082072
:103F000080B2C8BF0A4691B2401A02F0F2FC0246E3
:103F10000B462846314602F065FB02F075FA6061F7
:103F2000404602F0E6FC0546BBF80E000E46BBF824
:103F30001610B8F1000FD8BF0846BBF80C2080B2AD
:103F4000C8BF0A4691B2401A02F0D3FC02460B46A3
:103F50002846314602F046FB02F056FAA06101B055
:103F6000BDE8F08F10B52DED028B40F6AA11C2F21C
:103F70000001097841B39FED168A90ED030AF0EE37
:103F8000480A044600F092F994ED041A84ED030AFD
:103F9000B0EE410AF0EE480A00F088F994ED051AF7
:103FA00084ED040AB0EE410AF0EE480A00F07EF912
:103FB00094ED061A84ED050AB0EE410AF0EE480AC7
:103FC00000F074F984ED060ABDEC028B10BD00BF51
:103FD0003333B33F40F21801C2F20001097811B146
:103FE00041884942418040F6A811C2F20001097897
:103FF00011B181884942818040F6A911C2F20001C5
:10400000097811B1C1884942C18040F21901C2F258
:1040100000010978002908BF7047018949420181E0
:104020007047000005294FF0000231D8DFE801F0A9
:10403000030E1930302401783F2905D141783F29FA
:1040400002D180783F2820D00020704701783229A3
:1040500005D14178312902D18078322815D000204D
:1040600070470178312905D14178302902D1807813
:1040700031280AD0002070470178352907D14178CE
:10408000302904D18078312801D1012070470022E5
:10409000104670470B2A88BF7047DFE802F0060B16
:1040A00010151A1F24292E33383D498809BA090CE6
:1040B00001807047498809BA090C418070474988D6
:1040C00009BA090C81807047498809BA090CC18076
:1040D0007047498809BA090C01817047498809BAB3
:1040E000090C41817047498809BA090C81817047E0
:1040F000498809BA090CC1817047498809BA090C75
:1041000001827047498809BA090C41827047498881
:1041100009BA090C81827047498809BA090CC18221
:1041200040F6AA10C2F200000121017070470000A1
:104130002DE9F04F81B0904640F6AA12C2F200027B
:104140001278044632B3DDE90A329FED570A01EED8
:10415000103A21EE001ABDEEC11A11EE10AA01EEBE
:10416000102ADDE90C1021EE001ABDEEC11A11EE85
:1041700010BA01EE101A21EE001ABDEEC11A11EEAE
:10418000108A01EE100A21EE000ABDEEC00A10EE00
:10419000100A42E00814009302F0ABFB9FED3E0BC7
:1041A00057EC105B2A463B4602F0F6FB9FED3C0BBA
:1041B00056EC109B4A46334602F0EEFB02F06AFBD7
:1041C00082460FFA88F002F094FB2A463B4602F042
:1041D000E3FB4A46334602F0DFFB02F05BFB83461B
:1041E0004FEA284002F085FB2A463B4602F0D4FB0A
:1041F0004A46334602F0D0FB02F04CFB8046009862
:1042000000B202F076FB2A463B4602F0C5FB4A4666
:10421000334602F0C1FB02F03DFB1FFA88F31E0A91
:10422000DDF83C9041F2EC0126720E9E1FFA8AFCEA
:104230001FFA8BF287B221804FEA19214FEA1C2521
:10424000120A4FEA172EA17016F47F4184F80390EA
:10425000257184F805A0A27184F807B084F809805C
:1042600084F80AE0E07218BF0F21360618BFF0315B
:1042700021730BEB0A0141440844607302EB1C20DC
:1042800000EB132000EB1720A0730120E07301B0B6
:10429000BDE8F08F00BF00BF000000000000403FFD
:1042A000000000000088B34000409C4580B52DED23
:1042B000048BB5EE400AF1EE10FAB0EE608A16DD1E
:1042C00010EE100A02F05EFE41EC190B18EE100A17
:1042D00002F058FE41EC110BB0EE490AF0EE690A0B
:1042E00001F04AF951EC100B02F08EF81EE0B5EE29
:1042F000400AF1EE10FA1EDA10EE100A80F00040CB
:1043000002F040FE41EC190B18EE100A02F03AFEE2
:1043100041EC110BB0EE490AF0EE690A01F02CF9FC
:1043200051EC100B02F070F880F0004000EE100A23
:10433000BDEC048B80BD9FED020ABDEC048B80BDFB
:104340000000000080B540F2D43040F29801C2F283
:104350000000C2F200011422FDF7C4FF80BD00007E
:1043600040F21A0440F2041540F6D416C2F20004DA
:10437000C2F20005C2F20006002702E00A20FEF7A2
:1043800057FF20460221FFF74DFE0028297818BF6D
:104390000029F3D0FFF7D6FF30682F70013030606E
:1043A0000A20FEF745FFE9E7D0E9012301699360A0
:1043B0004B68D0F808C08342CCF8042001D1826851
:1043C0004A60002202610868013808600868704786
:1043D00044F2F873C2F20003036044F2F850C2F2F0
:1043E00000000860802010607047000044F65443CD
:1043F000C2F20003036044F65400C2F200000860F9
:104400004FF48070106070474FF0FF31024642F861
:10441000081F00214260C0E90322016070470000CC
:10442000002101617047000080B5D1F800C01CF187
:10443000010207D000F108039E465B681A686245D6
:10444000FAD901E0D0F810E0DEF8042008614A60F3
:104450009160C1F808E0CEF80410016801310160F4
:1044600080BD0000D0F800C0436808619A684B60C6
:104470008A609A68996051600CF10101016070478F
:10448000DFF80C00016841F470010160704700BF63
:1044900088ED00E04FF0500080F31188BFF36F8F7C
:1044A000BFF34F8F40F22400C2F2000001684A1CA3
:1044B000026001B170474EF60450CEF20000006871
:1044C000000608BF70474FF0500080F31188BFF31B
:1044D0006F8FBFF34F8F00BFFEE7000040F2240054
:1044E000C2F20000016839B10139016018BF70479C
:1044F000002080F3118870474FF0500080F311883E
:10450000BFF36F8FBFF34F8FFEE70000B0B50028F9
:1045100008BFB0BD044644F6D840C2F2000000789F
:1045200054F8041C002818BF4FF0004008420CD07B
:10453000A4F108052A6892B14FF0500080F3118869
:10454000BFF36F8FBFF34F8FFEE74FF0500080F344
:104550001188BFF36F8FBFF34F8F00BFFEE721EAD3
:10456000000044F8040C00F067F944F60451C2F26C
:10457000000154F8040C0A68104408602846FFF74C
:104580004FF944F61C50C2F200000168013101608D
:1045900000F0DCFEB0BD00004EF21000CEF20000D4
:1045A00000210160816040F20001C2F2000109684F
:1045B00044F6D352C1F26202A1FB02124FF0FF3166
:1045C00001EB92114160072101607047EFF3058014
:1045D000102814D34EF2F031CEF20001405C44F2C8
:1045E000D851C2F200010978884208D24FF0500039
:1045F00080F31188BFF36F8FBFF34F8FFEE74EF646
:104600000C50CEF2000044F2DC510068C2F200010E
:10461000096800F4E060884298BF70474FF050008E
:1046200080F31188BFF36F8FBFF34F8FFEE7000059
:1046300044F6385C0022C2F2000C00BF5CF8323055
:1046400023B10132082A08BF7047F7E70CEBC20319
:104650004CF832105860704770B515460E46044647
:10466000FFF718FF94F84400FF2804BF002084F8E7
:10467000440094F84500FF2804BF002084F845005A
:10468000FFF72CFFA06B28B904F1240031462A461D
:1046900000F05EF82046FFF7E5FA70BD10B5D8B11E
:1046A000044644F2EC50C2F20000006848B14FF0FA
:1046B000500080F31188BFF36F8FBFF34F8F00BF9F
:1046C000FEE700F0B9F820460021FEF749FE00F0B1
:1046D0003DFE002818BF10BD4EF60450CEF200007B
:1046E0004FF080510160BFF34F8FBFF36F8F10BD4C
:1046F00044F61451C2F200010968016044F6AC515D
:10470000C2F20001096841607047000044F6B850E9
:10471000C2F20000012101607047000010B568B1CD
:104720000C4640F23051C2F2000109681831FFF71F
:104730007BFE20460121FEF713FE10BD4FF0500016
:1047400080F31188BFF36F8FBFF34F8FFEE7000038
:10475000B0B590B10D4640F23051C2F20001096887
:1047600014461831FFF77EFE002C18BF4FF0FF35BE
:1047700028462146FEF7F4FDB0BD4FF0500080F30F
:104780001188BFF36F8FBFF34F8F00BFFEE70000AC
:10479000B0B586B0002505A804A903AACDE9045543
:1047A000FFF716FEDDE90320059CCDE9005043F23A
:1047B000CD60C0F600001EA10023029400F034FC7E
:1047C00044F60851C2F20001002808601CBF012015
:1047D00000F046FE411C20D001281CD14FF05000B3
:1047E00080F31188BFF36F8FBFF34F8F44F61050E3
:1047F000C2F200004FF0FF31016044F67850C2F27F
:1048000000000121016044F6AC50C2F2000000211A
:10481000016000F067F806B0B0BD4FF0500080F3C3
:104820001188BFF36F8FBFF34F8F00BFFEE700BF4C
:1048300049444C450000000044F2EC50C2F2000034
:10484000016801310160704744F2EC50C2F200008F
:10485000006830B144F6B850C2F200000121016096
:10486000704744F6B850C2F20000002144F2F45CF4
:104870000160C2F2000CDCF8001040F2485201EB7B
:104880008103C2F2000252F8230048B902EB830010
:10489000A0F11403D9B153F8140901390028F9D053
:1048A00001EB810002EB800252F8040F4368101DF7
:1048B0008342136001D158681060106840F2305292
:1048C000C068C2F200021060CCF8001070474FF0D0
:1048D000500080F31188BFF36F8FBFF34F8F00BF7D
:1048E000FEE7000080B582B04EF20040CEF200003C
:1048F0004CF27021C4F20F11D0F800294B1C9A42DF
:1049000009D14FF0500080F31188BFF36F8FBFF3D0
:104910004F8F00BFFEE7D0F800298A4209D14FF03F
:10492000500080F31188BFF36F8FBFF34F8F00BF2C
:10493000FEE7017844F2D8520191FF21017001781D
:10494000C2F200028DF803109DF8031001F050012F
:10495000117044F2DC51C2F2000107220A609DF995
:104960000330B3F1FF3F2FDD032A3CD14FF4E06366
:1049700003EA02220A6001990170D0F8201941F47B
:104980007001C0F82019D0F8201941F07041C0F82A
:104990002019FFF701FE40F22400C2F200000021BE
:1049A0000160FFF76DFD4EF63470CEF20000016835
:1049B00041F040410160FEF79FFFFFF745FFFFF721
:1049C0002BF9002002B080BD072200BF9DF8033004
:1049D000013A5B008DF803309DF90330002BF5D4CC
:1049E0000A60032AC2D04FF0500080F31188BFF351
:1049F0006F8FBFF34F8F00BFFEE7000080B54FF011
:104A0000500080F31188BFF36F8FBFF34F8F00F01A
:104A100061FB30B14EF60450CEF200004FF08051F1
:104A20000160002080F3118880BD0000B0B582B025
:104A300068B11D46ABB1F1B9EAB14FF0500080F357
:104A40001188BFF36F8FBFF34F8F00BFFEE74FF0AA
:104A5000500080F31188BFF36F8FBFF34F8F00BFFB
:104A6000FEE74FF0500080F31188BFF36F8FBFF364
:104A70004F8F00BFFEE751B14AB94FF0500080F3AD
:104A80001188BFF36F8FBFF34F8F00BFFEE7502336
:104A90000193019B502B0AD1069B019C012485F8B0
:104AA00046400095FEF728FE284602B0B0BD4FF004
:104AB000500080F31188BFF36F8FBFF34F8F00BF9B
:104AC000FEE7000070B5F8B104460E46FFF7E2FCC1
:104AD0002068D4E90F12002502FB0103013901FB14
:104AE0000201A563C4E90103FF20E16084F84400EA
:104AF00084F8450004F110007EB1FFF785FC04F155
:104B00002400FFF781FC18E04FF0500080F311887B
:104B1000BFF36F8FBFF34F8FFEE7016869B100F0FD
:104B2000CDFB50B14EF60450CEF200004FF0805154
:104B30000160BFF34F8FBFF36F8FFFF7CFFC0120F2
:104B400070BD00002DE9F04F83B00292B8B11D4650
:104B50000E460446E9B1022D03D1E06B012840F076
:104B60009A8000F09DFA00BB0298F0B14FF050001F
:104B700080F31188BFF36F8FBFF34F8FFEE74FF0C5
:104B8000500080F31188BFF36F8FBFF34F8F00BFCA
:104B9000FEE7206C0028DED04FF0500080F3118833
:104BA000BFF36F8FBFF34F8FFEE7FFF773FCA06B70
:104BB000022D58D0E16B884255D304F110084FF014
:104BC000000B6F460DF108094FF0000A029800280B
:104BD00000F07D80BAF1000F04D13846FFF788FD60
:104BE0004FF0010AFFF77AFCFFF726FEFFF752FCB1
:104BF00094F84400FF2808BF84F844B094F84500B6
:104C0000FF2808BF84F845B0FFF768FC38464946DE
:104C100000F092F900285DD12046FEF75FFEA8B1B2
:104C200002994046FFF77AFD2046FFF71BF800F097
:104C30008DFB80B94EF60450CEF200004FF080514B
:104C40000160BFF34F8FBFF36F8F04E02046FFF783
:104C500009F800F07BFBFFF71DFCA06B022D02D0D2
:104C6000E16B8842B2D2204631462A46FEF788FCE4
:104C700054F8241FC9B1204600F020FB08B34EF6BB
:104C80000450CEF200004FF080510160BFF34F8F0F
:104C9000BFF36F8F15E04FF0500080F31188BFF322
:104CA0006F8FBFF34F8F00BFFEE750B14EF6045039
:104CB000CEF200004FF080510160BFF34F8FBFF381
:104CC0006F8FFFF70BFC012003B0BDE8F08FFFF7FB
:104CD00005FC04E02046FEF7C5FF00F037FB00208E
:104CE00003B0BDE8F08F00002DE9F04381B0E8B1DA
:104CF0001E46914605460F4609B3022E02D1E86BC7
:104D0000012837D1FFF762FCEFF311884FF0500014
:104D100080F31188BFF36F8FBFF34F8FA86B022E04
:104D200019D0E96B884216D300203FE04FF05000C5
:104D300080F31188BFF36F8FBFF34F8FFEE7286CAE
:104D40000028DAD04FF0500080F31188BFF36F8F46
:104D5000BFF34F8FFEE795F84540A86B28463946CC
:104D60003246FEF70DFCFF2C0DD0601C85F8450087
:104D700001201BE04FF0500080F31188BFF36F8FCC
:104D8000BFF34F8FFEE755F8240F70B1284600F0AF
:104D900095FA0146B9F1000F4FF0010006D0002945
:104DA0001CBF0120C9F8000000E0012088F3118831
:104DB00001B0BDE8F08300002DE9F04F85B004920A
:104DC00098B10C460546002900F0A38000F068F970
:104DD000A8B9049898B14FF0500080F31188BFF340
:104DE0006F8FBFF34F8F00BFFEE74FF0500080F38F
:104DF0001188BFF36F8FBFF34F8F00BFFEE705F140
:104E000024000090002005F110094FF0000B02AFC4
:104E10000DF1100A01900AE02846FEF723FF00F08A
:104E200095FA2846FEF74EFD002840F08080FFF7F7
:104E300031FBD5F83880B8F1000F1DD02846214647
:104E4000FEF78AFBA8F10100A863286970B1484603
:104E500000F034FA50B14EF60450CEF200004FF09C
:104E600080510160BFF34F8FBFF36F8FFFF736FBA9
:104E70000020012690B95BE0049848B1019820B960
:104E80003846FFF735FC01200190012030B94FE092
:104E9000FFF724FB00260020002849D0FFF71EFB67
:104EA000FFF7CAFCFFF7F6FA95F84400FF2808BFA1
:104EB00085F844B095F84500FF2808BF85F845B04F
:104EC000FFF70CFB3846514600F036F80028A3D116
:104ED0002846FEF7F7FCB0B104990098FFF71EFCD6
:104EE0002846FEF7BFFE00F031FA00289FD14EF6AB
:104EF0000450CEF200004FF080510160BFF34F8F9D
:104F0000BFF36F8F93E72846FEF7ACFE00F01EFA62
:104F10008DE7286C00283FF459AF4FF0500080F324
:104F20001188BFF36F8FBFF34F8F00BFFEE70026DE
:104F3000304605B0BDE8F08FB0B5D0B10D4611B325
:104F40000446FFF7A7FA44F6AC50C2F2000001682D
:104F50002868421C21D044F614536268C2F2000350
:104F6000D3F800C091421AD323689C4517D001247E
:104F700022E04FF0500080F31188BFF36F8FBFF332
:104F80004F8F00BFFEE74FF0500080F31188BFF352
:104F90006F8FBFF34F8F00BFFEE700240CE0891A2C
:104FA000884206D9401A28602046FFF7A1FB00245A
:104FB00002E0002001242860FFF790FA2046B0BDEF
:104FC0002DE9F04383B00746900098461546894680
:104FD000FEF782FE78B106465C20FEF77DFE38B112
:104FE0000446066354B94FF0FF3003B0BDE8F083C8
:104FF0003046FFF78BFA0024002CF4D0DDE90A10CC
:10500000002284F85920CDE90010384649462A4646
:1050100043460294FEF780FB2046FEF7E1F90120AB
:1050200003B0BDE8F083000070B586B00B9CCCB136
:105030000C9E06B35C250495049D5C2D25D1049D32
:10504000DDF828C0022586F8595005AD3463CDE956
:1050500000C50296FEF760FB3046FEF7C1F90598E1
:1050600006B070BD4FF0500080F31188BFF36F8F12
:10507000BFF34F8FFEE74FF0500080F31188BFF36E
:105080006F8FBFF34F8F00BFFEE74FF0500080F3EC
:105090001188BFF36F8FBFF34F8F00BFFEE7000093
:1050A00044F67850C2F200000068002804BF0120D6
:1050B000704744F2EC50C2F200000068B0FA80F091
:1050C000400940007047000044F6AC50C2F20000B6
:1050D000006870472DE9F04F81B044F2EC50C2F205
:1050E0000000006840B144F62050C2F200000168A0
:1050F00000240131016092E044F6AC50C2F200009D
:1051000001684E1C066021D340F23850C2F2000004
:105110000168096849B14FF0500080F31188BFF36E
:105120006F8FBFF34F8F00BFFEE740F24052C2F2D5
:10513000000201681368036044F614501160C2F263
:105140000000016801310160FEF7F4FC44F61051E3
:10515000C2F20001086840F2305A40F248588642D4
:10516000C2F2000AC2F2000801D2002445E040F277
:105170003857C2F2000738680024006898B344F238
:10518000F45BC2F2000B19E0D9F82C00DBF8001038
:10519000884288BFCBF8000000EB800008EB80005D
:1051A0002946FFF75FF9D9F82C00DAF80010C96A30
:1051B0003A68884228BF01241068B8B13868C068CE
:1051C000D0F80C904D4655F8040F864210D328466F
:1051D000FFF7EAF8D9F828000028D5D009F118001F
:1051E000FFF7E2F8D0E74FF0FF3005E04FF0FF3077
:1051F00044F61051C2F200010860DAF80000C06AFB
:1052000000EB800058F82000012844F6B850C2F2A4
:10521000000088BF01240068002818BF0124204630
:1052200001B0BDE8F08F0000B0B580B1044640F297
:105230003050C2F200000068A0420AD04FF0500087
:1052400080F31188BFF36F8FBFF34F8FFEE700200D
:10525000B0BD206D38B3013820654FF0000018BF95
:10526000B0BDE16AE26C91421CD0251D2846FFF7D3
:105270009BF8E06CC0F13801A16144F2F451E062A6
:10528000C2F200010A68904288BF086040F24851AB
:1052900000EB8000C2F2000101EB80002946FFF71D
:1052A000E1F80120B0BD4FF0500080F31188BFF34A
:1052B0006F8FBFF34F8F00BFFEE70000B0B5C0682F
:1052C000C5687DB105F118042046FFF76DF844F27A
:1052D000EC50C2F20000006868B144F62450C2F2FB
:1052E00000001DE04FF0500080F31188BFF36F8F76
:1052F000BFF34F8FFEE72C1D2046FFF755F844F211
:10530000F451C2F20001E86A0A68904288BF08605E
:1053100040F2485100EB8000C2F2000101EB800036
:105320002146FFF79FF840F23051C2F20001E86ACF
:105330000968C96A884291BF002044F6B851C2F298
:105340000001012088BF0860B0BD00002DE9F04FCA
:1053500081B044F2EC54C2F20004206868B1FFF757
:1053600099F8206801382060206880B10024FFF798
:10537000B5F8204601B0BDE8F08F4FF0500080F343
:105380001188BFF36F8FBFF34F8F00BFFEE744F26A
:10539000E450C2F20000006800285DD044F62456B4
:1053A000C2F20006306844F6B858C2F2000890B362
:1053B00044F2F45740F2485940F2305BC2F2000721
:1053C000C2F20009C2F2000B4FF0010AF068C56892
:1053D00005F11800FEF7E8FF2C1D2046FEF7E4FF5C
:1053E000E86A3968884288BF386000EB800009EBC2
:1053F00080002146FFF736F8E86ADBF80010C96A3A
:10540000884228BFC8F800A030680028DED1002DEF
:1054100018BFFEF78FFB44F62054C2F20004256843
:1054200055B10126FFF756FE002818BFC8F80060E6
:10543000013DF7D100202060D8F8000070B14EF691
:105440000450CEF200004FF080510160BFF34F8F47
:105450000124BFF36F8F8AE7002488E7002486E7E2
:1054600080B586B0FEF712F844F6B050C2F20000E4
:10547000006800284FF000001FD0CDE9040005A807
:1054800004A903AAFEF7B2FFDDE903200221DDF83B
:1054900014C0CDE9001043F64D40C0F600000EA147
:1054A0000023CDF808C0FFF7BFFD44F6B451C2F2A7
:1054B00000010860002818BF012000281CBF06B0AA
:1054C00080BD4FF0500080F31188BFF36F8FBFF3A2
:1054D0004F8F00BFFEE700BF546D7220537663000C
:1054E00010B584B0A8B144F6B054C2F200048446AA
:1054F0002068C0B10529CDE90012CDF808C015DC3F
:10550000FFF7CEFD01462068022916D1069A6946AA
:1055100015E04FF0500080F31188BFF36F8FBFF399
:105520004F8F00BFFEE7002004B010BD69461A4649
:105530000023FFF7D9FB04B010BD69460022002309
:10554000FFF700FB04B010BD03B4019841000098C0
:1055500050EAC12018BF04204A0D18BF40F00100D6
:1055600040F2FF72B2EB515F08BF40F00200012829
:1055700008BF052002B070472DE9F04D2DED040B5A
:105580002DED0E8B96B0DDE92550279CDDF890A01F
:1055900025F0004624F00048BAF1000F14BF0121A5
:1055A000002101EB4502FC4953184A1093422AD3CB
:1055B000002814BF0123002303EB44030B44F749E5
:1055C0008B4220D358EA00019FEDF59B76D0DFF89F
:1055D000D8B35D4503D1BAF1000F05D188E0BAF127
:1055E000000F08BF002100D0012101EB450111F59A
:1055F000001F08D8002814BF0121002101EB44013D
:1056000011F5001F0BD99DED261B9DED240B16B047
:10561000BDEC0E8B04B0BDE8F04D00F069BE002774
:10562000002DBCBFE149884521DAE1498845A8BF82
:1056300002271CDAC3451ADCDE4901EB2851142984
:1056400008DDC1F1340220FA02F101FA02F28242CD
:105650000DD108E058B9C1F1140228FA02F101FA9B
:1056600002F2424503D101F00101C1F1020756EAFD
:105670000A0124D1002C22DA002D18BF022F01D0FC
:10568000012F0AD00220FAF7AFFF16B0BDEC0E8B47
:1056900004B0BDE8F04D00F013BE0220FAF7A4FFFD
:1056A00000F00EFE51EC100B00F0A1FE41EC100BCF
:1056B00016B0BDEC0E8B04B0BDE8F08D18E09FED88
:1056C000BEAB9FEDBF8B002871D1B848804522D179
:1056D00005F1804010F5801008BFBAF1000F07D027
:1056E000B3450ADC002CA8BF9DED260BE0DA0DE0E7
:1056F000B0EE490AF0EE690ADAE7002C06DA9DED11
:10570000260B51EC100B00F072FE6FE0AE487844AF
:1057100090ED000BCCE7D8454DD1002C48DA2EB1E6
:1057200086423AD1BAF1000F42D126E0BAF1000F19
:1057300013D00220FAF758FF00F0F6FD8DED020BB2
:105740009DED240B8DED000B10EE900A039961F393
:105750001E0003909DED020BAAE78DED02AB9DEDBF
:10576000240B1AEE901A10EE900A8DED000B61F3E7
:105770001E0003909DED020B9AE78DED028B9DEDCF
:10578000240B18EE901A10EE900A8DED000B61F3C9
:105790001E0003909DED020B8AE709DA9DED240BB4
:1057A00051EC190B53EC102B00F01CFF1EE020E015
:1057B0009DED240B7CE786421BDAB4F1804F0DD0BF
:1057C000A4F10050B0F1FF5013D1002D11DB9DED7D
:1057D000240B51EC100B00F0D3FD07E09DED240BE2
:1057E00053EC102B51EC100B00F0C2BC41EC100B31
:1057F0005EE79DED240B51EC100B00F0B5FDBAF106
:10580000000FCDE90E0142D19FED710B46B3A6F119
:10581000E040B0F17F600CD05E4538D1002D00DA59
:10582000A7B3022F0CBF01204FF0FF3001F061F849
:10583000DCE7002D01DD002C0DDA002D01DD002C50
:105840001FDB002D16DA002C14DB012F08BF9FEDA3
:10585000620B3FF42DAFB0EE4A0AF0EE6A0A27E77A
:10586000022F18BF002D0CD0012F0AD1002DFFF6FA
:105870001FAF06E0002DB8BF002C08DA012F3FF45F
:1058800017AFB0EE480AF0EE680A11E71BE00120FE
:1058900000EBE57050EA070115D0791EB0EE498A99
:1058A000F0EE698A084308BF9FED4D8B4E480025F6
:1058B000804570DD4D494E48884514DDB0420DDB12
:1058C000002C19DB2FE00120FAF78EFE16B0BDEC9C
:1058D0000E8B04B0BDE8F04D00F016BDB34502DC00
:1058E000002C09DC1FE0864202DA002C1BDA03E000
:1058F0005E452BDD002C16DD0220FAF775FE00F068
:1059000013FD8DED020B53EC1A2B51EC180B01F02B
:1059100043F8CDE900010399019861F31E0003905B
:105920009DED020BC4E60220FAF75EFE00F00CFDCE
:1059300010EE901A18EE900A8DED020B8DED008B93
:1059400061F31E0003909DED020BB1E69DED0E0B81
:1059500053EC192B51EC100B01F02AFA9FED260B9A
:10596000CDE9080153EC102B9DED080B51EC100B09
:1059700001F012F89FED221B53EC112B01F040F9BE
:105980009DED081B53EC112B01F006F89FED1E1B3B
:1059900053EC112B3CE08CE0FFFF1F00FFFF0F00DA
:1059A000000000000000F03F0000F03F0000F07F2A
:1059B0000000404301FCFFFF000000000000F07FFA
:1059C00000000000000000001E1B0000000000009E
:1059D0000000000000000080000000000000F0FF58
:1059E000000000000000F0BF0000E0410000F043B4
:1059F000FFFFEF3F00000000000000000000D03F6C
:105A0000555555555555D53F000000000000E03F65
:105A100001F0F6F89DED080B41EC1A0B53EC102B3E
:105A200051EC100B00F0B8FF53EC1A2B00F0B4FF50
:105A300041EC1A0B9FEDFE0B53EC102B9DED080B68
:105A400051EC100B00F0A8FF41EC1B0B9FEDFA0B83
:105A500051EC1A0B53EC102B00F09EFF41EC1A0B8B
:105A60009FEDF70B53EC102B9DED080B51EC100B39
:105A700000F092FF53EC1A2B01F09AF941EC1A0B4B
:105A800051EC1B0B53EC1A2B00F0F0FC0690CDE907
:105A900006519DED060B53EC1B2B51EC100B01F046
:105AA00087F953EC1A2B01F0ABF841EC100B00F026
:105AB000A1B90020B6F5801F0EDA9FEDE30B53EC81
:105AC000102B9DED0E0B51EC100B00F065FFCDE996
:105AD0000E016FF034000E4600EB2650A0F2FF37A7
